{
  "_format": "hh-sol-artifact-1",
  "contractName": "ImageLicense",
  "sourceName": "contracts/ImageLicense.sol",
  "abi": [
    {
      "anonymous": false,
      "inputs": [
        {
          "indexed": true,
          "internalType": "address",
          "name": "owner",
          "type": "address"
        },
        {
          "indexed": false,
          "internalType": "string",
          "name": "ipfsHash",
          "type": "string"
        },
        {
          "indexed": false,
          "internalType": "string",
          "name": "licenseDetails",
          "type": "string"
        },
        {
          "indexed": false,
          "internalType": "uint256",
          "name": "timestamp",
          "type": "uint256"
        }
      ],
      "name": "ImageUploaded",
      "type": "event"
    },
    {
      "inputs": [
        {
          "internalType": "string",
          "name": "_ipfsHash",
          "type": "string"
        }
      ],
      "name": "getImageDetails",
      "outputs": [
        {
          "internalType": "address",
          "name": "owner",
          "type": "address"
        },
        {
          "internalType": "string",
          "name": "licenseDetails",
          "type": "string"
        },
        {
          "internalType": "uint256",
          "name": "timestamp",
          "type": "uint256"
        }
      ],
      "stateMutability": "view",
      "type": "function"
    },
    {
      "inputs": [
        {
          "internalType": "string",
          "name": "",
          "type": "string"
        }
      ],
      "name": "images",
      "outputs": [
        {
          "internalType": "address",
          "name": "owner",
          "type": "address"
        },
        {
          "internalType": "string",
          "name": "licenseDetails",
          "type": "string"
        },
        {
          "internalType": "uint256",
          "name": "timestamp",
          "type": "uint256"
        }
      ],
      "stateMutability": "view",
      "type": "function"
    },
    {
      "inputs": [
        {
          "internalType": "string",
          "name": "_ipfsHash",
          "type": "string"
        },
        {
          "internalType": "string",
          "name": "_licenseDetails",
          "type": "string"
        }
      ],
      "name": "uploadImage",
      "outputs": [],
      "stateMutability": "nonpayable",
      "type": "function"
    }
  ],
  "bytecode": "0x6080604052348015600f57600080fd5b50610cef8061001f6000396000f3fe608060405234801561001057600080fd5b50600436106100415760003560e01c80631b73aeff14610046578063a91b831414610078578063e12ee76514610094575b600080fd5b610060600480360381019061005b9190610627565b6100c6565b60405161006f93929190610749565b60405180910390f35b610092600480360381019061008d9190610787565b61024e565b005b6100ae60048036038101906100a99190610627565b6103e5565b6040516100bd93929190610749565b60405180910390f35b600060606000806000856040516100dd919061083b565b90815260200160405180910390206040518060600160405290816000820160009054906101000a900473ffffffffffffffffffffffffffffffffffffffff1673ffffffffffffffffffffffffffffffffffffffff1673ffffffffffffffffffffffffffffffffffffffff16815260200160018201805461015c90610881565b80601f016020809104026020016040519081016040528092919081815260200182805461018890610881565b80156101d55780601f106101aa576101008083540402835291602001916101d5565b820191906000526020600020905b8154815290600101906020018083116101b857829003601f168201915b5050505050815260200160028201548152505090506000816040015103610231576040517f08c379a0000000000000000000000000000000000000000000000000000000008152600401610228906108fe565b60405180910390fd5b806000015181602001518260400151935093509350509193909250565b6000825111610292576040517f08c379a00000000000000000000000000000000000000000000000000000000081526004016102899061096a565b60405180910390fd5b60008151116102d6576040517f08c379a00000000000000000000000000000000000000000000000000000000081526004016102cd906109d6565b60405180910390fd5b60405180606001604052803373ffffffffffffffffffffffffffffffffffffffff16815260200182815260200142815250600083604051610317919061083b565b908152602001604051809103902060008201518160000160006101000a81548173ffffffffffffffffffffffffffffffffffffffff021916908373ffffffffffffffffffffffffffffffffffffffff16021790555060208201518160010190816103819190610ba2565b50604082015181600201559050503373ffffffffffffffffffffffffffffffffffffffff167fe233c78cc38c2ac96b15d405e953457817f1d5792c7c73976d56fffeee3f989f8383426040516103d993929190610c74565b60405180910390a25050565b6000818051602081018201805184825260208301602085012081835280955050505050506000915090508060000160009054906101000a900473ffffffffffffffffffffffffffffffffffffffff169080600101805461044490610881565b80601f016020809104026020016040519081016040528092919081815260200182805461047090610881565b80156104bd5780601f10610492576101008083540402835291602001916104bd565b820191906000526020600020905b8154815290600101906020018083116104a057829003601f168201915b5050505050908060020154905083565b6000604051905090565b600080fd5b600080fd5b600080fd5b600080fd5b6000601f19601f8301169050919050565b7f4e487b7100000000000000000000000000000000000000000000000000000000600052604160045260246000fd5b610534826104eb565b810181811067ffffffffffffffff82111715610553576105526104fc565b5b80604052505050565b60006105666104cd565b9050610572828261052b565b919050565b600067ffffffffffffffff821115610592576105916104fc565b5b61059b826104eb565b9050602081019050919050565b82818337600083830152505050565b60006105ca6105c584610577565b61055c565b9050828152602081018484840111156105e6576105e56104e6565b5b6105f18482856105a8565b509392505050565b600082601f83011261060e5761060d6104e1565b5b813561061e8482602086016105b7565b91505092915050565b60006020828403121561063d5761063c6104d7565b5b600082013567ffffffffffffffff81111561065b5761065a6104dc565b5b610667848285016105f9565b91505092915050565b600073ffffffffffffffffffffffffffffffffffffffff82169050919050565b600061069b82610670565b9050919050565b6106ab81610690565b82525050565b600081519050919050565b600082825260208201905092915050565b60005b838110156106eb5780820151818401526020810190506106d0565b60008484015250505050565b6000610702826106b1565b61070c81856106bc565b935061071c8185602086016106cd565b610725816104eb565b840191505092915050565b6000819050919050565b61074381610730565b82525050565b600060608201905061075e60008301866106a2565b818103602083015261077081856106f7565b905061077f604083018461073a565b949350505050565b6000806040838503121561079e5761079d6104d7565b5b600083013567ffffffffffffffff8111156107bc576107bb6104dc565b5b6107c8858286016105f9565b925050602083013567ffffffffffffffff8111156107e9576107e86104dc565b5b6107f5858286016105f9565b9150509250929050565b600081905092915050565b6000610815826106b1565b61081f81856107ff565b935061082f8185602086016106cd565b80840191505092915050565b6000610847828461080a565b915081905092915050565b7f4e487b7100000000000000000000000000000000000000000000000000000000600052602260045260246000fd5b6000600282049050600182168061089957607f821691505b6020821081036108ac576108ab610852565b5b50919050565b7f496d616765206e6f7420666f756e642e00000000000000000000000000000000600082015250565b60006108e86010836106bc565b91506108f3826108b2565b602082019050919050565b60006020820190508181036000830152610917816108db565b9050919050565b7f4950465320686173682063616e6e6f7420626520656d7074792e000000000000600082015250565b6000610954601a836106bc565b915061095f8261091e565b602082019050919050565b6000602082019050818103600083015261098381610947565b9050919050565b7f4c6963656e73652064657461696c732063616e6e6f7420626520656d7074792e600082015250565b60006109c06020836106bc565b91506109cb8261098a565b602082019050919050565b600060208201905081810360008301526109ef816109b3565b9050919050565b60008190508160005260206000209050919050565b60006020601f8301049050919050565b600082821b905092915050565b600060088302610a587fffffffffffffffffffffffffffffffffffffffffffffffffffffffffffffffff82610a1b565b610a628683610a1b565b95508019841693508086168417925050509392505050565b6000819050919050565b6000610a9f610a9a610a9584610730565b610a7a565b610730565b9050919050565b6000819050919050565b610ab983610a84565b610acd610ac582610aa6565b848454610a28565b825550505050565b600090565b610ae2610ad5565b610aed818484610ab0565b505050565b5b81811015610b1157610b06600082610ada565b600181019050610af3565b5050565b601f821115610b5657610b27816109f6565b610b3084610a0b565b81016020851015610b3f578190505b610b53610b4b85610a0b565b830182610af2565b50505b505050565b600082821c905092915050565b6000610b7960001984600802610b5b565b1980831691505092915050565b6000610b928383610b68565b9150826002028217905092915050565b610bab826106b1565b67ffffffffffffffff811115610bc457610bc36104fc565b5b610bce8254610881565b610bd9828285610b15565b600060209050601f831160018114610c0c5760008415610bfa578287015190505b610c048582610b86565b865550610c6c565b601f198416610c1a866109f6565b60005b82811015610c4257848901518255600182019150602085019450602081019050610c1d565b86831015610c5f5784890151610c5b601f891682610b68565b8355505b6001600288020188555050505b505050505050565b60006060820190508181036000830152610c8e81866106f7565b90508181036020830152610ca281856106f7565b9050610cb1604083018461073a565b94935050505056fea26469706673582212205062dfa0ef80c67feefdab49607a4e7ee9c7d766fe8d4946cc816b77a7f689de64736f6c634300081c0033",
  "linkReferences": {},
  "deployedLinkReferences": {}
}