{
  "_format": "hh-sol-artifact-1",
  "contractName": "DocumentVerification",
  "sourceName": "contracts/DocumentVerification.sol",
  "abi": [
    {
      "anonymous": false,
      "inputs": [
        {
          "indexed": false,
          "internalType": "address",
          "name": "uploader",
          "type": "address"
        },
        {
          "indexed": false,
          "internalType": "bytes32",
          "name": "documentHash",
          "type": "bytes32"
        }
      ],
      "name": "DocumentUploaded",
      "type": "event"
    },
    {
      "anonymous": false,
      "inputs": [
        {
          "indexed": false,
          "internalType": "address",
          "name": "verifier",
          "type": "address"
        },
        {
          "indexed": false,
          "internalType": "address",
          "name": "uploader",
          "type": "address"
        },
        {
          "indexed": false,
          "internalType": "bytes32",
          "name": "documentHash",
          "type": "bytes32"
        }
      ],
      "name": "DocumentVerified",
      "type": "event"
    },
    {
      "inputs": [
        {
          "internalType": "address",
          "name": "",
          "type": "address"
        },
        {
          "internalType": "uint256",
          "name": "",
          "type": "uint256"
        }
      ],
      "name": "documents",
      "outputs": [
        {
          "internalType": "address",
          "name": "uploader",
          "type": "address"
        },
        {
          "internalType": "bytes32",
          "name": "documentHash",
          "type": "bytes32"
        },
        {
          "internalType": "uint256",
          "name": "timestamp",
          "type": "uint256"
        },
        {
          "internalType": "bool",
          "name": "verified",
          "type": "bool"
        }
      ],
      "stateMutability": "view",
      "type": "function"
    },
    {
      "inputs": [
        {
          "internalType": "bytes32",
          "name": "_documentHash",
          "type": "bytes32"
        }
      ],
      "name": "uploadDocument",
      "outputs": [],
      "stateMutability": "nonpayable",
      "type": "function"
    },
    {
      "inputs": [
        {
          "internalType": "address",
          "name": "_uploader",
          "type": "address"
        },
        {
          "internalType": "bytes32",
          "name": "_documentHash",
          "type": "bytes32"
        }
      ],
      "name": "verifyDocument",
      "outputs": [],
      "stateMutability": "nonpayable",
      "type": "function"
    }
  ],
  "bytecode": "0x6080604052348015600f57600080fd5b506106978061001f6000396000f3fe608060405234801561001057600080fd5b50600436106100415760003560e01c806363398844146100465780636efb63551461007957806373fea50314610095575b600080fd5b610060600480360381019061005b9190610462565b6100b1565b60405161007094939291906104f4565b60405180910390f35b610093600480360381019061008e9190610565565b61012b565b005b6100af60048036038101906100aa9190610592565b610285565b005b600060205281600052604060002081815481106100cd57600080fd5b9060005260206000209060040201600091509150508060000160009054906101000a900473ffffffffffffffffffffffffffffffffffffffff16908060010154908060020154908060030160009054906101000a900460ff16905084565b6000803373ffffffffffffffffffffffffffffffffffffffff1673ffffffffffffffffffffffffffffffffffffffff16815260200190815260200160002060405180608001604052803373ffffffffffffffffffffffffffffffffffffffff16815260200183815260200142815260200160001515815250908060018154018082558091505060019003906000526020600020906004020160009091909190915060008201518160000160006101000a81548173ffffffffffffffffffffffffffffffffffffffff021916908373ffffffffffffffffffffffffffffffffffffffff160217905550602082015181600101556040820151816002015560608201518160030160006101000a81548160ff02191690831515021790555050507ff99bc9356237cf8517303f12b348c716e63c9ed46d8a5a72dd164232754099d3338260405161027a9291906105d2565b60405180910390a150565b60008060008473ffffffffffffffffffffffffffffffffffffffff1673ffffffffffffffffffffffffffffffffffffffff168152602001908152602001600020905060005b81805490508110156103c357828282815481106102ea576102e96105fb565b5b9060005260206000209060040201600101541480156103385750818181548110610317576103166105fb565b5b906000526020600020906004020160030160009054906101000a900460ff16155b156103b6576001828281548110610352576103516105fb565b5b906000526020600020906004020160030160006101000a81548160ff0219169083151502179055507fbc946e6a5337ac860e4b4b6a70ea09f0d599af70da664aca109ca5278fc3b0433385856040516103ad9392919061062a565b60405180910390a15b80806001019150506102ca565b50505050565b600080fd5b600073ffffffffffffffffffffffffffffffffffffffff82169050919050565b60006103f9826103ce565b9050919050565b610409816103ee565b811461041457600080fd5b50565b60008135905061042681610400565b92915050565b6000819050919050565b61043f8161042c565b811461044a57600080fd5b50565b60008135905061045c81610436565b92915050565b60008060408385031215610479576104786103c9565b5b600061048785828601610417565b92505060206104988582860161044d565b9150509250929050565b6104ab816103ee565b82525050565b6000819050919050565b6104c4816104b1565b82525050565b6104d38161042c565b82525050565b60008115159050919050565b6104ee816104d9565b82525050565b600060808201905061050960008301876104a2565b61051660208301866104bb565b61052360408301856104ca565b61053060608301846104e5565b95945050505050565b610542816104b1565b811461054d57600080fd5b50565b60008135905061055f81610539565b92915050565b60006020828403121561057b5761057a6103c9565b5b600061058984828501610550565b91505092915050565b600080604083850312156105a9576105a86103c9565b5b60006105b785828601610417565b92505060206105c885828601610550565b9150509250929050565b60006040820190506105e760008301856104a2565b6105f460208301846104bb565b9392505050565b7f4e487b7100000000000000000000000000000000000000000000000000000000600052603260045260246000fd5b600060608201905061063f60008301866104a2565b61064c60208301856104a2565b61065960408301846104bb565b94935050505056fea264697066735822122052033206dd9f9e2ccf83e9af8910210fad75c700e145d428fd5ee848fd2f529564736f6c634300081c0033",
  "linkReferences": {},
  "deployedLinkReferences": {}
}